:100000000C9435000C945D000C945D000C945D0024
:100010000C945D000C945D000C945D000C945D00EC
:100020000C945D000C945D000C945D000C945D00DC
:100030000C945D000C945D000C945D000C945D00CC
:100040000C94C7020C945D000C9495020C946F0202
:100050000C945D000C945D000C945D000C945D00AC
:100060000C945D000C945D00110311241FBECFEFB2
:10007000D8E0DEBFCDBF11E0A0E0B1E0E2EEFCE0F1
:1000800002C005900D92A032B107D9F721E0A0E29D
:10009000B1E001C01D92A63FB207E1F710E0C5E351
:1000A000D0E004C02197FE010E949804C433D10718
:1000B000C9F70E944C030C946F060C940000CF9279
:1000C000DF92EF92FF920F931F93CF93DF936C0118
:1000D0007A018B01C0E0D0E0CE15DF0589F0D801B0
:1000E0006D918D01D601ED91FC910190F081E02D93
:1000F000C6010995892B11F47E0102C02196ECCF2F
:10010000C701DF91CF911F910F91FF90EF90DF908A
:10011000CF900895FC01918D828D981761F0828DAA
:10012000DF01A80FB11D5D968C91928D9F5F9F732B
:10013000928F90E008958FEF9FEF0895FC01918DCD
:10014000828D981731F0828DE80FF11D858D90E03A
:1001500008958FEF9FEF0895FC01918D228D892FD7
:1001600090E0805C9F4F821B91098F7399270895BF
:1001700083E591E00E94AC0021E0892B09F420E0A6
:10018000822F0895FC01848DDF01A80FB11DA35AB1
:10019000BF4F2C91848D90E001968F739927848FA7
:1001A000A689B7892C93A089B1898C9180648C939E
:1001B000938D848D981306C00288F389E02D808189
:1001C0008F7D80830895EF92FF920F931F93CF93BB
:1001D000DF93EC0181E0888F9B8D8C8D981305C097
:1001E000E889F989808185FD24C0F62E0B8D10E009
:1001F0000F5F1F4F0F731127E02E8C8DE8120CC07C
:100200000FB607FCFACFE889F989808185FFF5CF21
:10021000CE010E94C200F1CF8B8DFE01E80FF11DCF
:10022000E35AFF4FF0820B8FEA89FB89808180625D
:1002300007C0EE89FF896083E889F989808180643D
:10024000808381E090E0DF91CF911F910F91FF902B
:10025000EF900895CF93DF93EC01888D8823C9F048
:10026000EA89FB89808185FD05C0A889B9898C91BF
:1002700086FD0FC00FB607FCF5CF808185FFF2CF5A
:10028000A889B9898C9185FFEDCFCE010E94C2006B
:10029000E7CFDF91CF91089580E090E0892B29F09E
:1002A0000E94B80081110C94000008953FB7F894A3
:1002B0008091210190912201A0912301B09124010C
:1002C00026B5A89B05C02F3F19F00196A11DB11DB1
:1002D0003FBFBA2FA92F982F8827820F911DA11DEC
:1002E000B11DBC01CD0142E0660F771F881F991F29
:1002F0004A95D1F708958F929F92AF92BF92CF9275
:10030000DF92EF92FF926B017C010E9456014B013C
:100310005C01C114D104E104F104F1F00E94560122
:10032000DC01CB0188199909AA09BB09883E9340D1
:10033000A105B10570F321E0C21AD108E108F10866
:1003400088EE880E83E0981EA11CB11CC114D10454
:10035000E104F10419F7DDCFFF90EF90DF90CF902B
:10036000BF90AF909F908F900895CF92DF92EF92C1
:10037000FF92CF93DF93EC01072E000C880B990BB3
:100380000E94520520E030E048EC52E40E949E04B6
:1003900020E030E04EEF52E40E94B1056B017C0199
:1003A00020E030E04EEF52E40E944605181634F487
:1003B000C12CD12C9EEFE92E92E4F92ECC0FDD1F3B
:1003C000C75DDE4F68817981072E000C880B990B81
:1003D0000E9452059B01AC01C701B6010E9446056F
:1003E000181634F4C701B6010E941005798368839A
:1003F000DF91CF91FF90EF90DF90CF90089500971D
:1004000069F0FC0101900020E9F73197AF01481B2A
:10041000590BBC0183E591E00C945F0080E090E013
:1004200008958F929F92AF92BF920F931F93CF9395
:10043000DF93CDB7DEB7A1970FB6F894DEBF0FBE3E
:10044000CDBF19A2423008F44AE08E010F5D1F4F64
:10045000842E912CA12CB12CA50194010E9476042C
:10046000E62FB901CA0101501109EA3014F4E05D28
:1004700001C0E95CD801EC93232B242B252B61F7D9
:10048000C8010E94FF01A1960FB6F894DEBF0FBE0F
:10049000CDBFDF91CF911F910F91BF90AF909F90F3
:1004A0008F9008950E944B05CF93DF93D62FC42FD2
:1004B000682F70E080E090E04AE00E9411026D2F0A
:1004C00070E080E090E04AE00E9411026C2F70E042
:1004D00080E090E04AE0DF91CF910C9411021F92EE
:1004E0000F920FB60F9211242F933F934F935F9368
:1004F0006F937F938F939F93AF93BF93EF93FF93EC
:1005000083E591E00E94C200FF91EF91BF91AF910E
:100510009F918F917F916F915F914F913F912F911B
:100520000F900FBE0F901F9018951F920F920FB64D
:100530000F9211242F938F939F93EF93FF93E0914A
:100540006301F09164018081E0916901F0916A0199
:1005500082FD12C0908180916C018F5F8F7320911A
:100560006D01821751F0E0916C01F0E0ED5AFE4F01
:10057000958F80936C0101C08081FF91EF919F91D5
:100580008F912F910F900FBE0F901F9018951F9273
:100590000F920FB60F9211242F933F938F939F9337
:1005A000AF93BF938091250190912601A0912701DF
:1005B000B09128013091200123E0230F2D3720F442
:1005C0000196A11DB11D05C026E8230F0296A11DAD
:1005D000B11D209320018093250190932601A093C3
:1005E0002701B09328018091210190912201A091CF
:1005F0002301B09124010196A11DB11D8093210119
:1006000090932201A0932301B0932401BF91AF9155
:100610009F918F913F912F910F900FBE0F901F9040
:100620001895E3E5F1E01382128288EE93E0A0E0F2
:10063000B0E084839583A683B78384E091E09183BF
:10064000808385EC90E09587848784EC90E09787A1
:10065000868780EC90E0918B808B81EC90E0938B8F
:10066000828B82EC90E0958B848B86EC90E0978B6C
:10067000868B118E128E138E148EE0EFF1E086E4DD
:10068000808387E4818388E4828389E483838AE4A6
:1006900084838BE485830895789484B5826084BDD7
:1006A00084B5816084BD85B5826085BD85B5816076
:1006B00085BD80916E00816080936E0010928100F4
:1006C00080918100826080938100809181008160AF
:1006D0008093810080918000816080938000809170
:1006E000B10084608093B1008091B00081608093FC
:1006F000B00080917A00846080937A0080917A00C3
:10070000826080937A0080917A00816080937A0081
:1007100080917A00806880937A001092C100E09105
:100720006301F091640182E08083E0915F01F091C8
:1007300060011082E0916101F09162018FEC808391
:1007400010926B01E0916701F091680186E080836F
:10075000E0916501F0916601808180618083E09184
:100760006501F0916601808188608083E091650178
:10077000F0916601808180688083E0916501F0914D
:10078000660180818F7D8083A5E3B1E0E9E2F1E03D
:10079000CDE4D1E01992119211921D921D921D92F9
:1007A0001D9281E0E533F807A9F788EE93E0A0E019
:1007B000B0E08093570190935801A0935901B093F2
:1007C0005A0180E191E00E94FF018CE191E00E94DA
:1007D000FF019924939480EFC82E81E0D82E95E3F1
:1007E000E92E91E0F92E29E2A22E21E0B22E0DE4AD
:1007F00011E0C0E0D0E08C2F806480937C00809179
:100800007A00806480937A0080917A0086FDFCCF24
:10081000609178008091790070E0782BF8018081F8
:100820006431710504F181111AC02FB7F8948091D9
:10083000250190912601A0912701B09128012FBF99
:10084000F701408051806280738084199509A60960
:10085000B709C297A105B10580F1F8019082CE01D8
:100860000E94B5012AC0882341F1F5014081F601BB
:10087000608180E90E94540265E070E080E090E0D1
:100880000E947B0140E0F601608180E80E945402F2
:10089000F50111821082F80110822FB7F89480912F
:1008A000250190912601A0912701B09128012FBF29
:1008B000F70180839183A283B38321960F5F1F4F3B
:1008C000F2E0AF0EB11C8FEFC81AD80AE4E0EE0ECA
:1008D000F11CC630D10509F08ECF62E370E080E0F4
:1008E00090E00E947B010E944C0175CFA1E21A2E7C
:1008F000AA1BBB1BFD010DC0AA1FBB1FEE1FFF1FC4
:10090000A217B307E407F50720F0A21BB30BE40B13
:10091000F50B661F771F881F991F1A9469F760955A
:100920007095809590959B01AC01BD01CF01089514
:10093000EE0FFF1F0590F491E02D09940E94B20480
:100940000C9435060E942E0658F00E94270640F0AF
:1009500029F45F3F29F00C941E0651110C9469068E
:100960000C9424060E94460668F39923B1F355239C
:1009700091F3951B550BBB27AA27621773078407B2
:1009800038F09F5F5F4F220F331F441FAA1FA9F348
:1009900035D00E2E3AF0E0E832D091505040E69536
:1009A000001CCAF72BD0FE2F29D0660F771F881F97
:1009B000BB1F261737074807AB07B0E809F0BB0B8A
:1009C000802DBF01FF2793585F4F3AF09E3F51059E
:1009D00078F00C941E060C9469065F3FE4F3983E91
:1009E000D4F3869577956795B795F7959F5FC9F787
:1009F000880F911D9695879597F90895E1E0660F08
:100A0000771F881FBB1F621773078407BA0720F080
:100A1000621B730B840BBA0BEE1F88F7E0950895E9
:100A20000E9417056894B1110C94690608950E94FC
:100A30004E0688F09F5798F0B92F9927B751B0F01C
:100A4000E1F0660F771F881F991F1AF0BA95C9F752
:100A500014C0B13091F00E946806B1E008950C9482
:100A60006806672F782F8827B85F39F0B93FCCF335
:100A7000869577956795B395D9F73EF490958095CF
:100A8000709561957F4F8F4F9F4F08950E948D0500
:100A900008F48FEF089581E090E0F8940C946F06CD
:100AA000E89409C097FB3EF4909580957095619508
:100AB0007F4F8F4F9F4F9923A9F0F92F96E9BB27BE
:100AC0009395F695879577956795B795F111F8CF3A
:100AD000FAF4BB0F11F460FF1BC06F5F7F4F8F4FA5
:100AE0009F4F16C0882311F096E911C0772321F09B
:100AF0009EE8872F762F05C0662371F096E8862F33
:100B000070E060E02AF09A95660F771F881FDAF789
:100B1000880F9695879597F90895990F0008550FB6
:100B2000AA0BE0E8FEEF16161706E807F907C0F073
:100B300012161306E407F50798F0621B730B840B7B
:100B4000950B39F40A2661F0232B242B252B21F455
:100B500008950A2609F4A140A6958FEF811D811DF5
:100B600008950E94C4050C9435060E94270638F0AB
:100B70000E942E0620F0952311F00C941E060C9472
:100B8000240611240C9469060E94460670F3959F72
:100B9000C1F3950F50E0551F629FF001729FBB2774
:100BA000F00DB11D639FAA27F00DB11DAA1F649F10
:100BB0006627B00DA11D661F829F2227B00DA11DC3
:100BC000621F739FB00DA11D621F839FA00D611D49
:100BD000221F749F3327A00D611D231F849F600D6A
:100BE000211D822F762F6A2F11249F5750409AF093
:100BF000F1F088234AF0EE0FFF1FBB1F661F771F1F
:100C0000881F91505040A9F79E3F510580F00C94E9
:100C10001E060C9469065F3FE4F3983ED4F3869574
:100C200077956795B795F795E7959F5FC1F7FE2B89
:100C3000880F911D9695879597F9089597F99F6765
:100C400080E870E060E008959FEF80EC0895002454
:100C50000A941616170618060906089500240A9421
:100C600012161306140605060895092E0394000CA7
:100C700011F4882352F0BB0F40F4BF2B11F460FF36
:100C800004C06F5F7F4F8F4F9F4F089557FD90585F
:100C9000440F551F59F05F3F71F04795880F97FB40
:100CA000991F61F09F3F79F08795089512161306FA
:100CB0001406551FF2CF4695F1DF08C01616170629
:100CC0001806991FF1CF869571056105089408955E
:100CD000E894BB2766277727CB0197F90895F89406
:020CE000FFCF44
:100CE20000000000E3005F00AC008A009E002A01C1
:100CF2005374617274696E672E2E2E000D0A000005
:107E0000112484B714BE81FFF0D085E080938100F7
:107E100082E08093C00088E18093C10086E0809377
:107E2000C20080E18093C4008EE0C9D0259A86E02C
:107E300020E33CEF91E0309385002093840096BBD3
:107E4000B09BFECF1D9AA8958150A9F7CC24DD24C4
:107E500088248394B5E0AB2EA1E19A2EF3E0BF2EE7
:107E6000A2D0813461F49FD0082FAFD0023811F036
:107E7000013811F484E001C083E08DD089C08234E0
:107E800011F484E103C0853419F485E0A6D080C0E4
:107E9000853579F488D0E82EFF2485D0082F10E0AE
:107EA000102F00270E291F29000F111F8ED06801E7
:107EB0006FC0863521F484E090D080E0DECF843638
:107EC00009F040C070D06FD0082F6DD080E0C81688
:107ED00080E7D80618F4F601B7BEE895C0E0D1E017
:107EE00062D089930C17E1F7F0E0CF16F0E7DF06D8
:107EF00018F0F601B7BEE89568D007B600FCFDCFD4
:107F0000A601A0E0B1E02C9130E011968C91119780
:107F100090E0982F8827822B932B1296FA010C0160
:107F200087BEE89511244E5F5F4FF1E0A038BF0790
:107F300051F7F601A7BEE89507B600FCFDCF97BE46
:107F4000E89526C08437B1F42ED02DD0F82E2BD052
:107F50003CD0F601EF2C8F010F5F1F4F84911BD097
:107F6000EA94F801C1F70894C11CD11CFA94CF0C13
:107F7000D11C0EC0853739F428D08EE10CD085E9AC
:107F80000AD08FE07ACF813511F488E018D01DD067
:107F900080E101D065CF982F8091C00085FFFCCF94
:107FA0009093C60008958091C00087FFFCCF809118
:107FB000C00084FD01C0A8958091C6000895E0E648
:107FC000F0E098E1908380830895EDDF803219F02E
:107FD00088E0F5DFFFCF84E1DECF1F93182FE3DFCA
:107FE0001150E9F7F2DF1F91089580E0E8DFEE27F6
:047FF000FF270994CA
:027FFE00040479
:0400000300007E007B
:00000001FF
