:100000000C9453000C947B000C947B000C947B00AC
:100010000C947B000C947B000C947B000C947B0074
:100020000C947B000C947B000C947B000C947B0064
:100030000C947B000C947B000C947B000C947B0054
:100040000C9469040C947B000C9437040C941104F8
:100050000C947B000C947B000C947B000C947B0034
:100060000C947B000C947B0000000000250028000D
:100070002B0000000000240027002A0004040404D0
:100080000404040402020202020203030303030342
:10009000010204081020408001020408102001021F
:1000A00004081020B30411241FBECFEFD8E0DEBF38
:1000B000CDBF11E0A0E0B1E0E2EEF9E102C00590B1
:1000C0000D92AC3BB107D9F722E0ACEBB1E001C037
:1000D0001D92A53DB207E1F710E0C3E5D0E004C0F2
:1000E0002197FE010E94D209C235D107C9F70E94AB
:1000F00000050C94EF0C0C9400002FB7F89480913D
:10010000300290913102A0913202B09133022FBFA0
:1001100080933C0290933D02A0933E02B0933F0235
:10012000E0913402F09135020680F781E02D84E3FE
:1001300092E0099597FF26C02FB7F894809130027E
:1001400090913102A0913202B09133022FBF4091C1
:100150003C0250913D0260913E0270913F02841B2F
:10016000950BA60BB70B4091380250913902609164
:100170003A0270913B0284179507A607B70780F2F1
:100180008FEF9FEF0895CF92DF92EF92FF920F9340
:100190001F93CF93DF936C017A018B01C0E0D0E015
:1001A000CE15DF0589F0D8016D918D01D601ED9155
:1001B000FC910190F081E02DC6010995892B11F485
:1001C0007E0102C02196ECCFC701DF91CF911F9134
:1001D0000F91FF90EF90DF90CF900895FC01918DEB
:1001E000828D981761F0828DDF01A80FB11D5D9699
:1001F0008C91928D9F5F9F73928F90E008958FEF07
:100200009FEF0895FC01918D828D981731F0828DBA
:10021000E80FF11D858D90E008958FEF9FEF089511
:10022000FC01918D228D892F90E0805C9F4F821B75
:1002300091098F739927089584E392E00E94100139
:1002400021E0892B09F420E0822F0895FC01848DA0
:10025000DF01A80FB11DA35ABF4F2C91848D90E0F0
:1002600001968F739927848FA689B7892C93A089CB
:10027000B1898C9180648C93938D848D981306C082
:100280000288F389E02D80818F7D80830895EF922D
:10029000FF920F931F93CF93DF93EC0181E0888F40
:1002A0009B8D8C8D981305C0E889F989808185FD27
:1002B00024C0F62E0B8D10E00F5F1F4F0F73112718
:1002C000E02E8C8DE8120CC00FB607FCFACFE8893F
:1002D000F989808185FFF5CFCE010E942601F1CFFB
:1002E0008B8DFE01E80FF11DE35AFF4FF0820B8F5B
:1002F000EA89FB898081806207C0EE89FF8960837B
:10030000E889F98980818064808381E090E0DF91D1
:10031000CF911F910F91FF90EF900895CF93DF93AE
:10032000EC01888D8823C9F0EA89FB89808185FDED
:1003300005C0A889B9898C9186FD0FC00FB607FC4E
:10034000F5CF808185FFF2CFA889B9898C9185FF8F
:10035000EDCFCE010E942601E7CFDF91CF91089526
:1003600080E090E0892B29F00E941C0181110C94FF
:10037000000008958E3008F08E508770806480935E
:100380007C0080917A00806480937A0080917A006A
:1003900086FDFCCF809178002091790090E0922B2F
:1003A00008953FB7F8948091BE019091BF01A0914C
:1003B000C001B091C10126B5A89B05C02F3F19F01F
:1003C0000196A11DB11D3FBFBA2FA92F982F8827D5
:1003D000820F911DA11DB11DBC01CD0142E0660F30
:1003E000771F881F991F4A95D1F70895CF93DF9300
:1003F000009779F0FC0101900020E9F73197AF01F7
:10040000481B590BBC0184E392E00E94C300EC013D
:1004100002C0C0E0D0E042E050E064E671E084E376
:1004200092E00E94C3008C0F9D1FDF91CF91089531
:10043000CF93DF93FC01448155816081718184E316
:1004400092E00E94C300EC0142E050E064E671E0FB
:1004500084E392E00E94C3008C0F9D1FDF91CF9137
:1004600008950E94CF0BFC0180819181009711F0CB
:100470000C94E40B60E070E0CB0108950F931F93A0
:10048000CF93DF93EC0188819981009729F02A812D
:100490003B812617370788F48B016F5F7F4F0E94DF
:1004A000050B009761F0998388831B830A832C8155
:1004B0003D81232B11F4FC01108281E001C080E01A
:1004C000DF91CF911F910F910895EF92FF920F93BB
:1004D0001F93CF93DF93FC01248135816115710552
:1004E00011F480E019C041155105A9F07B01EC0120
:1004F0008A01020F131FB8010E943E02882389F36C
:10050000288139818C819D81B701820F931F0E94C0
:10051000DD0B1D830C8381E0DF91CF911F910F9143
:10052000FF90EF900895CF93DF93EC01888199813C
:10053000009711F00E946D0A198218821D821C8298
:100540001B821A82DF91CF910895CF93DF93EC0144
:1005500041E050E069E971E00E946502811103C049
:10056000CE010E949302CE01DF91CF910895EF92C8
:10057000FF920F931F93CF93DF93EC017B018A01CE
:10058000BA010E943E02811104C0CE010E94930272
:1005900007C01D830C83B701888199810E94DD0B00
:1005A000CE01DF91CF911F910F91FF90EF900895B1
:1005B0009F92AF92BF92CF92DF92EF92FF920F93F2
:1005C0001F93CF93DF9300D0CDB7DEB78C016B01C3
:1005D000942E5901DC0111961C921E9213961C92C6
:1005E0001E92129715961C921E92149740E050E0AE
:1005F00066E671E00E94B702E12CF12C80E090E009
:10060000F60124813581A90141505109E416F5060E
:10061000D0F5E216F30628F4D601ED91FC9130975F
:1006200029F41092BC01ECEBF1E002C0EE0DFF1DCD
:100630004081491102C0019622C08A159B05E1F450
:10064000E216F30628F4D601ED91FC91309729F4D7
:100650001092BC01ECEBF1E002C0EE0DFF1D8081B9
:1006600089831A8241E050E0BE016F5F7F4FC8016D
:100670000E946502C50103C0A816B90624F0BFEFA9
:10068000EB1AFB0ABDCFC8010E941802C8010F90E7
:100690000F90DF91CF911F910F91FF90EF90DF901E
:1006A000CF90BF90AF909F900895FC018081918181
:1006B0000C946D0AEF92FF920F931F93CF93DF93E9
:1006C000CDB7DEB729970FB6F894DEBF0FBECDBF0A
:1006D0008C01862FF80111821082138212821582FA
:1006E000148250E09E012F5F3F4F7901B90190E0E5
:1006F0000E94200CF70101900020E9F73197AF012B
:100700004E195F09B701C8010E94B70229960FB6BA
:10071000F894DEBF0FBECDBFDF91CF911F910F9137
:10072000FF90EF900895FB01DC0111961C921E9240
:1007300013961C921E92129715961C921E92149755
:100740008617970749F0608171816115710521F065
:10075000448155810C94B70208950F931F93CF9352
:10076000DF93CDB7DEB768970FB6F894DEBF0FBE44
:10077000CDBF062F142F4AE0682FCE010D960E94A0
:100780005A034AE0602FCE0107960E945A034AE0BE
:10079000612FCE0101960E945A03BE01635F7F4F15
:1007A000CE0143960E949303CE0143960E94A50278
:1007B0008C014B855C856F8178850E946502811173
:1007C00003C0C8010E949302C8010E94A5028C01C7
:1007D0004D815E8169817A810E946502811103C029
:1007E000C8010E949302C8010E941802CE014396DC
:1007F0000E945503CE0101960E945503CE01079633
:100800000E945503CE010D960E94550368960FB6BF
:10081000F894DEBF0FBECDBFDF91CF911F910F9136
:1008200008951F920F920FB60F9211242F933F93AA
:100830004F935F936F937F938F939F93AF93BF93E8
:10084000EF93FF9384E392E00E942601FF91EF91E2
:10085000BF91AF919F918F917F916F915F914F91D8
:100860003F912F910F900FBE0F901F9018951F92E0
:100870000F920FB60F9211242F938F939F93EF93A4
:10088000FF93E0914402F09145028081E0914A0299
:10089000F0914B0282FD12C0908180914D028F5FDA
:1008A0008F7320914E02821751F0E0914D02F0E0DB
:1008B000EC5CFD4F958F80934D0201C08081FF91CC
:1008C000EF919F918F912F910F900FBE0F901F90DE
:1008D00018951F920F920FB60F9211242F933F93EA
:1008E0008F939F93AF93BF93809130029091310289
:1008F000A0913202B09133023091BD0123E0230F69
:100900002D3720F40196A11DB11D05C026E8230F47
:100910000296A11DB11D2093BD01809330029093DA
:100920003102A0933202B09333028091BE019091C4
:10093000BF01A091C001B091C1010196A11DB11DDF
:100940008093BE019093BF01A093C001B093C101F9
:10095000BF91AF919F918F913F912F910F900FBEBB
:100960000F901F901895E4E3F2E01382128288EE54
:1009700093E0A0E0B0E084839583A683B78388E505
:1009800091E09183808385EC90E09587848784EC67
:1009900090E09787868780EC90E0918B808B81EC4C
:1009A00090E0938B828B82EC90E0958B848B86EC2D
:1009B00090E0978B868B118E128E138E148EEAE048
:1009C000F1E080914601909147019183808380916D
:1009D0000601909107019383828380910401909195
:1009E000050195838483809102019091030197838F
:1009F00086838091000190910101918780870895FD
:100A0000CF93DF93CDB7DEB7C456D1090FB6F894B4
:100A1000DEBF0FBECDBF789484B5826084BD84B53F
:100A2000816084BD85B5826085BD85B5816085BDE9
:100A300080916E00816080936E00109281008091A1
:100A40008100826080938100809181008160809329
:100A50008100809180008160809380008091B1004E
:100A600084608093B1008091B00081608093B00079
:100A700080917A00846080937A0080917A0082600D
:100A800080937A0080917A00816080937A008091CF
:100A90007A00806880937A001092C100C09046016D
:100AA000D0904701E0904801F090490160E079E082
:100AB0008DE390E0A70196010E94BE0CDA01C90106
:100AC0000197A109B109B695A795979587959C01BE
:100AD000E0914402F091450282E08083C11481EEEE
:100AE000D806E104F10421F0211590E13907B8F0AE
:100AF000E0914402F0914502108260E874E88EE1D2
:100B000090E0A70196010E94BE0CDA01C90101978D
:100B1000A109B109B695A795979587959C01E09194
:100B20004002F09141023083E0914202F091430291
:100B3000208310924C02E0914802F091490286E035
:100B40008083E0914602F09147028081806180833A
:100B5000E0914602F0914702808188608083E091B5
:100B60004602F0914702808180688083E0914602CE
:100B7000F091470280818F7D8083AAE0B1E0F2ECA2
:100B80008F2EF1E09F2E2EEC31E06AED71E016EE33
:100B9000E12E11E0F12E02EF602E01E0702E80E0D8
:100BA00090E04D915C911197F301518340831C9625
:100BB000CD90DC901D97D586C48658960D911C91DA
:100BC0005997118F008F94964D915C91959755A3ED
:100BD00044A3D096AD90BC90D197B1AAA0AAF7013A
:100BE000C192D1927F01FB0101931193BF01F901E1
:100BF000419351939F01F401A192B1924F01AC0135
:100C00004F5F5F4FCA011296F2E06F0E711C4630C3
:100C1000510539F68091F2019091F301A0E0B0E026
:100C20008093460190934701A0934801B0934901F6
:100C30008091F4019091F501A0E0B0E0809306016D
:100C400090930701A0930801B09309018091F601E8
:100C50009091F70190930501809304018091F80130
:100C60009091F90190930301809302018091FA0120
:100C70009091FB01909301018093000126EE31E0F9
:100C80003327B90160577F4F24583F4FFB01A49190
:100C9000F90184918823A1F090E0880F991FFC014D
:100CA000EE58FF4F0591149188599F4FFC01E59034
:100CB000F4908FB7F894F8019081A92BA0838FBF8F
:100CC0004150510919F78091060190910701A091B7
:100CD0000801B09109018093380290933902A093E2
:100CE0003A02B0933B0287E691E00E94F6018BE95D
:100CF00091E0282F880F330BA1963FAF2EAFA1971D
:100D000084E392E00E941001892B39F081E090E0A9
:100D100090932F0280932E0204C010922F02109203
:100D20002E02E0902E02F0902F02E114F10409F05F
:100D300085C0812C912C96E0891691040CF02FC36C
:100D4000C7016C01FC01E652FE4F7080872D0E94A6
:100D5000BA015C01F601E253FE4F008111810817D0
:100D600019070CF064C060900401F601EE53FE4FC9
:100D7000908168969FAF6897872D0E94BA016C0199
:100D8000A816B9062CF4872D0E94BA015601F7CF98
:100D90001801110F440855082CE231E040E050E002
:100DA0002219330944095509D5010E947F0C2FEF00
:100DB00033E040E050E00E94550CBA01A901420D19
:100DC000531D641D751D68966FAD6897862D0E9432
:100DD000AD030E94D1011B012C0194EFA92EBB246D
:100DE000B394C12CD12C0E94D101DC01CB0182191A
:100DF0009309A409B509883E9340A105B10558F0AF
:100E0000E1E0AE1AB108C108D108F8EE2F0EF3E008
:100E10003F1E411C511CA114B104C104D10419F797
:100E200040E068966FAD6897862D0E94AD033FEF56
:100E3000831A930A82E0E80EF11C7DCFEA94EF2832
:100E400009F0ADC280E791E00E94F60161961FAE05
:100E50001EAE619763961FAE1EAE639765961FAE7A
:100E60001EAE659740E050E066E671E0CE01815B22
:100E70009F4F0E94B7020E947D0097FD14C0A1966B
:100E80002EAD3FADA1978217930769F089831A822F
:100E900041E050E0BE016F5F7F4FCE01815B9F4F0D
:100EA0000E946502E8CFBE01615B7F4FCE01875B88
:100EB0009F4F0E9493030EE911E0BE01675B7F4FD5
:100EC000CE0101960E94930320E030E0402FBE0146
:100ED0006F5F7F4FCE018D5B9F4F0E94D802CE0186
:100EE00001960E945503BE01675B7F4FCE010196BC
:100EF0000E94930321E030E0402FBE016F5F7F4FDF
:100F0000CE01CD960E94D802CE0101960E945503D3
:100F1000BE01675B7F4FCE0101960E94930322E0E2
:100F200030E0402FBE016F5F7F4FCE01C7960E9419
:100F3000D802CE0101960E945503BE01675B7F4F28
:100F4000CE0101960E94930323E030E0402FBE01C2
:100F50006F5F7F4FCE01C1960E94D802CE010196ED
:100F60000E945503BE01675B7F4FCE0101960E9430
:100F7000930324E030E0402FBE016F5F7F4FCE012E
:100F80008B960E94D802CE0101960E945503CE0195
:100F90000D9667969FAF8EAF6797BE01655D7F4FD9
:100FA0000E9493035E0193E1A90EB11CBE016F5C28
:100FB0007F4FC5010E9493034E01E9E18E0E911C03
:100FC000BE01695C7F4FC4010E9493033E01FFE1B3
:100FD0006F0E711CBE01635C7F4FC3010E949303BF
:100FE000BE016D5B7F4FCE0185960E94930382EA1E
:100FF00091E0582E8E01095F1F4FBE016B5D7F4F40
:10100000C8010E94930320E030E0452DB801CE01D5
:1010100001960E94D802CE0101960E94330270937D
:10102000F3016093F201CE0101960E945503C801BD
:101030000E945503BE016B5D7F4FC8010E94930360
:1010400021E030E0452DB801CE0101960E94D80282
:10105000CE0101960E9433027093F5016093F40172
:10106000CE0101960E945503C8010E945503BE019E
:101070006B5D7F4FC8010E94930322E030E0452D55
:10108000B801CE0101960E94D802CE0101960E94BD
:1010900033027093F7016093F601CE0101960E942E
:1010A0005503C8010E945503BE016B5D7F4FC80107
:1010B0000E94930323E030E0452DB801CE01019654
:1010C0000E94D802CE0101960E9433027093F9016A
:1010D0006093F801CE0101960E945503C8010E9459
:1010E0005503BE016B5D7F4FC8010E94930324E04E
:1010F00030E0452DB801CE0101960E94D802CE0104
:1011000001960E9433026B017C017093FB01609396
:10111000FA01CE0101960E945503C8010E945503B1
:101120008091F2019091F301A0E0B0E0809346013C
:1011300090934701A0934801B09349018091F40135
:101140009091F501A0E0B0E0809306019093070133
:10115000A0930801B09309018091F6019091F701E5
:1011600090930501809304018091F8019091F90119
:101170009093030180930201D0920101C09200017B
:1011800022EC31E06F963FAF2EAF6F978EEC91E07F
:101190006B969FAF8EAF6B97EAEDF1E06D96FFAF68
:1011A000EEAF6D9726EE31E069963FAF2EAF6997AF
:1011B00082EF282E81E0382EE12CF12C6696CFAC00
:1011C00066976796DFAC6797B301C8010E949303E7
:1011D0009701452DB801CE0101960E94D802CE019B
:1011E00001960E943302F10175876487CE01019652
:1011F0000E945503C8010E945503B401C8010E9412
:1012000093039701452DB801CE0101960E94D802A3
:10121000CE0101960E943302F101718F608FCE01E1
:1012200001960E945503C8010E945503B501C801EB
:101230000E9493039701452DB801CE0101960E94AB
:10124000D802CE0101960E943302F10175A364A376
:10125000CE0101960E945503C8010E945503B601B4
:10126000C8010E9493039701452DB801CE01019654
:101270000E94D802CE0101960E943302AB01BC014C
:10128000F10151AB40ABCE010196A2964FAFA297B0
:10129000A3965FAFA397A4966FAFA497A5967FAFD1
:1012A000A5970E945503C8010E945503F10184854A
:1012B00095856996EEADFFAD699781939193699697
:1012C000FFAFEEAF6997F101808D918D6D96EEAD18
:1012D000FFAD6D97819391936D96FFAFEEAF6D97D4
:1012E000F10184A195A16B96EEADFFAD6B97819353
:1012F00091936B96FFAFEEAF6B97A2964FADA2970F
:10130000A3965FADA3976F96EEADFFAD6F97419338
:1013100051936F96FFAFEEAF6F97FFEFEF1AFF0A93
:1013200022E0220E311C36E0E316F10409F04CCF26
:10133000CE0185960E945503C3010E945503C40146
:101340000E945503C5010E945503C6010E94550322
:10135000CE018B960E945503CE01C1960E94550383
:10136000CE01C7960E945503CE01CD960E9455032B
:10137000CE018D5B9F4F0E945503CE01875B9F4F2F
:101380000E94550384EA91E00E94F60110922F0218
:1013900010922E02CE01815B9F4F0E9455030E9446
:1013A000B001AECCEE0FFF1F0590F491E02D099433
:1013B000CF93DF938230910510F482E090E0E091CA
:1013C000D302F091D40220E030E0C0E0D0E03097CA
:1013D00011F14081518148175907C0F0481759074A
:1013E00061F482819381209719F09B838A832BC0BB
:1013F0009093D4028093D30226C02115310519F0B1
:101400004217530718F49A01BE01DF01EF01028071
:10141000F381E02DDCCF2115310509F1281B390BB3
:101420002430310590F412968D919C91139761159B
:10143000710521F0FB019383828304C09093D40251
:101440008093D302FD01329644C0FD01E20FF31FE9
:1014500081939193225031092D933C933AC020916E
:10146000D1023091D202232B41F420914C013091D2
:101470004D013093D2022093D10220914A01309144
:101480004B012115310541F42DB73EB740914E0176
:1014900050914F01241B350BE091D102F091D20203
:1014A000E217F307A0F42E1B3F0B2817390778F03B
:1014B000AC014E5F5F4F2417350748F04E0F5F1F9A
:1014C0005093D2024093D1028193919302C0E0E005
:1014D000F0E0CF01DF91CF9108950F931F93CF9349
:1014E000DF93009709F48CC0FC01329713821282BB
:1014F0000091D3021091D4020115110581F42081CD
:101500003181820F931F2091D1023091D20228178E
:10151000390779F5F093D202E093D10271C0D80176
:1015200040E050E0AE17BF0750F412962D913C9169
:101530001397AD012115310509F1D901F3CF9D01B3
:10154000DA013383228360817181860F971F8217AE
:10155000930769F4EC0128813981260F371F2E5F2C
:101560003F4F318320838A819B8193838283452BE4
:1015700029F4F093D402E093D30242C01396FC9373
:10158000EE931297ED01499159919E01240F351F59
:10159000E217F30771F480819181840F951F029601
:1015A00011969C938E938281938113969C938E9334
:1015B0001297E0E0F0E0D80112968D919C9113977C
:1015C000009719F0F8018C01F6CF8D919C9198014C
:1015D0002E5F3F4F820F931F2091D1023091D20294
:1015E0002817390769F4309729F41092D402109221
:1015F000D30202C0138212821093D2020093D1024E
:10160000DF91CF911F910F910895A0E0B0E0EBE042
:10161000FBE00C948B0CEC01009721F4CB010E94B1
:10162000D809B8C0FC01E60FF71F9C012250310910
:10163000E217F30708F4ACC0D9010D911C91119782
:1016400006171707B0F00530110508F49FC0C80150
:1016500004978617970708F499C002501109061BD2
:10166000170B019311936D937C93CF010E946D0A28
:101670008DC05B01A01AB10A4C01800E911EA09191
:10168000D302B091D40240E050E0E12CF12C10974D
:1016900009F44AC0A815B905D1F56D907C90119751
:1016A000630182E0C80ED11CCA14DB0480F1A301DF
:1016B0004A195B096A0182E0C80ED11C1296BC90DF
:1016C00012971396AC91B5E0CB16D10440F0B282DC
:1016D000A38351834083D9016D937C930AC00E5F2D
:1016E0001F4FC301800F911FF90191838083EB2D60
:1016F000FA2FE114F10431F0D7011396FC93EE9325
:10170000129744C0F093D402E093D3023FC08D916E
:101710009C9111974817590708F4AC017D01129666
:101720000D90BC91A02DB3CF8091D1029091D202A7
:1017300088159905E1F446175707C8F480914A01C6
:1017400090914B01009741F48DB79EB740914E01A7
:1017500050914F01841B950BE817F907C8F4F093DB
:10176000D202E093D102F901718360830FC0CB01F3
:101770000E94D8097C01009759F0A801BE010E947F
:10178000D40BCE010E946D0AC70104C0CE0102C075
:1017900080E090E0CDB7DEB7EEE00C94A70C81E0DE
:1017A00090E0F8940C94EF0CFB01DC0102C0019076
:1017B0000D9241505040D8F70895FB01DC01019093
:1017C0000D920020E1F708951F93FC0199278827C7
:1017D000BC01E89411911032E9F3193010F01E3079
:1017E000C8F31B3251F01D3249F4689406C00E94C0
:1017F0000B0C610F711D811D911D119110531A3039
:10180000B0F33EF490958095709561957F4F8F4F22
:101810009F4F1F910895592F482F372F262F660F5E
:10182000771F881F991F660F771F881F991F620FE8
:10183000731F841F951F660F771F881F991F0895B8
:101840004532510520F4423010F00C942B0CFB0172
:101850001082CB010895BB27FB015527AA27880FCB
:10186000991FAA1FA41710F0A41B83955051B9F714
:10187000A05DAA3308F0A95DA193009779F7B11193
:10188000B1931192CB010C94450CDC01FC01672F44
:1018900071917723E1F7329704C07C916D93708347
:1018A0006291AE17BF07C8F30895052E97FB1EF48B
:1018B00000940E946C0C57FD07D00E94BE0C07FCE0
:1018C00003D04EF40C946C0C5095409530952195B6
:1018D0003F4F4F4F5F4F089590958095709561955C
:1018E0007F4F8F4F9F4F08950E94E00CA59F900D52
:1018F000B49F900DA49F800D911D11240895B7FFF2
:101900000C94740C0E94740C821B930B08952F92FC
:101910003F924F925F926F927F928F929F92AF927F
:10192000BF92CF92DF92EF92FF920F931F93CF93CC
:10193000DF93CDB7DEB7CA1BDB0B0FB6F894DEBF63
:101940000FBECDBF09942A88398848885F846E8489
:101950007D848C849B84AA84B984C884DF80EE80D3
:10196000FD800C811B81AA81B981CE0FD11D0FB6DC
:10197000F894DEBF0FBECDBFED010895A1E21A2E8F
:10198000AA1BBB1BFD010DC0AA1FBB1FEE1FFF1F23
:10199000A217B307E407F50720F0A21BB30BE40B73
:1019A000F50B661F771F881F991F1A9469F76095BA
:1019B0007095809590959B01AC01BD01CF01089574
:1019C000A29FB001B39FC001A39F700D811D112480
:1019D000911DB29F700D811D1124911D0895F894E1
:0219E000FFCF37
:1019E2007F0050005A00E8030000000000000000E1
:1019F20000000000000003000500060009000A00C4
:101A02000B000000010002000300040005001E009C
:101A12001E001E00640064003200460047004800B9
:101A220049004A004B00802500000000D5028000DA
:101A320001000000000000004701C3001001EE0099
:101A420002018E010D0A005374617274696E67009F
:101A5200496E6974696174696E6720636F6E666945
:101A6200677561726174696F6E2073657475702039
:101A7200726F7574696E652E2E2E007D7D007D2C31
:101A82007B002C00436F6E66696775726174696FC3
:0C1A92006E20757064617465642E0000A5
:00000001FF
